{
  "contractName": "ConvertLib",
  "abi": [
    {
      "constant": true,
      "inputs": [
        {
          "name": "amount",
          "type": "uint256"
        },
        {
          "name": "conversionRate",
          "type": "uint256"
        }
      ],
      "name": "convert",
      "outputs": [
        {
          "name": "convertedAmount",
          "type": "uint256"
        }
      ],
      "payable": false,
      "stateMutability": "pure",
      "type": "function"
    }
  ],
  "bytecode": "0x60606040523415600e57600080fd5b60918061001c6000396000f300606060405260043610603e5763ffffffff7c010000000000000000000000000000000000000000000000000000000060003504166396e4ee3d81146043575b600080fd5b604f6004356024356061565b60405190815260200160405180910390f35b02905600a165627a7a72305820ed1e6f312de66fa98b7c027283f2c280da61146d97d3ed70d6a3890858a3a74b0029",
  "source": "pragma solidity ^0.4.4;\n\nlibrary ConvertLib{\n\tfunction convert(uint amount,uint conversionRate) public pure returns (uint convertedAmount)\n\t{\n\t\treturn amount * conversionRate;\n\t}\n\n    function Addr2String(address input) internal pure returns (string memory str) {\n\t\tbytes memory byteArray = new bytes(20);\n\t\tfor (uint i = 0; i < 20; i++) {\n\t\t\tbyteArray[i] = byte(uint8(uint(input) / (2**(8*(19 - i)))));\n\t\t}\n\t\tstr = string(byteArray);\n\t}\n    function bytes32ToString(bytes32 b32) internal pure returns (string out) {\n        bytes memory bytesArray = new bytes(32);\n        for (uint256 i; i < 32; i++) {\n            bytesArray[i] = b32[i];\n            }\n        return string(bytesArray);\n    }\n    function stringToBytes32(string memory source) internal pure returns (bytes32 result) {\n        bytes memory tempEmptyStringTest = bytes(source);\n        if (tempEmptyStringTest.length == 0) {\n            return 0x0;\n        }\n    \n        assembly {\n            result := mload(add(source, 32))\n        }\n    }\n}\n",
  "sourcePath": "G:\\blockchain\\test1\\contracts\\ConvertLib.sol",
  "compiler": {
    "name": "solc",
    "version": "0.4.19+commit.c4cbbb05.Emscripten.clang"
  },
  "schemaVersion": "2.0.0",
  "updatedAt": "2018-03-21T07:22:53.289Z"
}